:100000000C9463000C94B9030C9492030C948B0031
:100010000C948B000C948B000C948B000C948B0034
:100020000C948B000C948B000C948B000C948B0024
:100030000C948B000C948B000C948B000C948B0014
:100040000C9448030C948B000C9406040C94E0036D
:100050000C948B000C948B000C948B000C948B00F4
:100060000C948B000C948B000000000025002800ED
:100070002B0000000000240027002A0000000000E0
:1000800023002600290004040404040404040202DA
:100090000202020203030303030301020408102007
:1000A0004080010204081020010204081020000012
:1000B0000008000201000003040700000000000027
:1000C00000003804BE0611241FBECFEFD8E0DEBF0B
:1000D000CDBF22E0A4E3B1E001C01D92AE3AB20769
:1000E000E1F711E0A0E0B1E0EAE5F2E102C005903D
:1000F0000D92A433B107D9F710E0C2E6D0E004C0F6
:100100002197FE010E942807C136D107C9F70E9436
:100110006C040C9420090C940000E0EBF0E0849156
:10012000ECE9F0E09491E8E8F0E0E491EE23C1F12D
:10013000882339F08330E9F090F4813001F1823086
:1001400011F1F0E0EE0FFF1FE458FF4FA591B491BD
:10015000EC91E92381E090E029F580E00895873073
:10016000A9F08830C9F0843061F7809180008F7DDC
:1001700003C0809180008F7780938000E2CF84B5A8
:100180008F7784BDDECF84B58F7DFBCF8091B000AB
:100190008F778093B000D5CF8091B0008F7DF9CF5D
:1001A00080E090E008953FB7F8948091FD01909130
:1001B000FE01A091FF01B091000226B5A89B05C0E9
:1001C0002F3F19F00196A11DB11D3FBFBA2FA92FD6
:1001D000982F8827BC01CD01620F711D811D911DD3
:1001E00042E0660F771F881F991F4A95D1F708953F
:1001F0000E948D000197D1F40E94D30060934001CA
:100200007093410180934201909343010E948D00BD
:10021000892B09F04AC00E94D30060933801709383
:10022000390180933A0190933B0108950E94D300D5
:1002300060933C0170933D0180933E0190933F0198
:100240004091400150914101609142017091430100
:1002500080913C0190913D01A0913E01B0913F0100
:10026000481759076A077B0788F680913C019091EF
:100270003D01A0913E01B0913F014091400150915C
:1002800041016091420170914301841B950BA60BC3
:10029000B70B8093F4019093F501A093F601B0930E
:1002A000F70181E08093F301B1CF0E94D300609306
:1002B000340170933501809336019093370140915A
:1002C00038015091390160913A0170913B01809160
:1002D000340190913501A0913601B0913701481752
:1002E00059076A077B07F8F4809134019091350132
:1002F000A0913601B09137014091380150913901F8
:1003000060913A0170913B01841B950BA60BB70BD2
:100310008093740190937501A0937601B093770157
:1003200081E08093780108950895AF92BF92CF92B3
:10033000DF92EF92FF920F931F93CF93DF936C01A5
:100340007B018B01040F151FEB015E01AE18BF0886
:10035000C017D10759F06991D601ED91FC91019038
:10036000F081E02DC6010995892B79F7C501DF9150
:10037000CF911F910F91FF90EF90DF90CF90BF90A2
:10038000AF900895FC01538D448D252F30E0842FCC
:1003900090E0821B930B541710F0CF9608950197AD
:1003A0000895FC01918D828D981761F0A28DAE0F9A
:1003B000BF2FB11D5D968C91928D9F5F9F73928F21
:1003C00090E008958FEF9FEF0895FC01918D828D4D
:1003D000981731F0828DE80FF11D858D90E008951A
:1003E0008FEF9FEF0895FC01918D228D892F90E072
:1003F000805C9F4F821B91098F739927089581E03C
:1004000092E00E94F30121E0892B09F420E0822F81
:10041000089580E090E0892B29F00E94FF0181116E
:100420000C9400000895FC01A48DA80FB92FB11DF4
:10043000A35ABF4F2C91848D90E001968F7399271A
:10044000848FA689B7892C93A089B1898C918370F8
:1004500080648C93938D848D981306C00288F389F1
:10046000E02D80818F7D80830895EF92FF920F931E
:100470001F93CF93DF93EC0181E0888F9B8D8C8D50
:1004800098131AC0E889F989808185FF15C09FB744
:10049000F894EE89FF896083E889F9898081837007
:1004A000806480839FBF81E090E0DF91CF911F91B6
:1004B0000F91FF90EF900895F62E0B8D10E00F5FD7
:1004C0001F4F0F731127E02E8C8D8E110CC00FB6AD
:1004D00007FCFACFE889F989808185FFF5CFCE0145
:1004E0000E941302F1CFEB8DEC0FFD2FF11DE35AAB
:1004F000FF4FF0829FB7F8940B8FEA89FB898081C8
:100500008062CFCFCF93DF93EC01888D8823B9F041
:10051000AA89BB89E889F9898C9185FD03C080810E
:1005200086FD0DC00FB607FCF7CF8C9185FFF2CF8B
:10053000808185FFEDCFCE010E941302E9CFDF91CC
:10054000CF910895FC0101900020E9F73197AF01A8
:10055000481B590BBC0181E092E00C9495018F92ED
:100560009F92AF92BF920F931F93CF93DF93CDB71C
:10057000DEB7A1970FB6F894DEBF0FBECDBF19A2AC
:10058000423008F44AE08E010F5D1F4F842E912CFB
:10059000B12CA12CA50194010E940607E62FB901F8
:1005A000CA01EA30F4F4E05DD801EE938D01232B0B
:1005B000242B252B79F790E080E0109719F0CD01DE
:1005C0000E94A202A1960FB6F894DEBF0FBECDBF67
:1005D000DF91CF911F910F91BF90AF909F908F901F
:1005E0000895E95CE1CFCF92DF92EF92FF92CF9333
:1005F000DF936B017C016DE281E092E00E943502A5
:10060000EC0166277727CB016C197D098E099F09BC
:100610004AE00E94AF028C0F9D1FDF91CF91FF90A7
:10062000EF90DF90CF900895CF93DF93EC01198284
:1006300018821B821A821D821C8261E070E090E0A9
:1006400080E00E9453080097A1F0998388831B8261
:100650001A822C813D81232B11F4FC0110821D8212
:100660001C8261E371E088819981DF91CF910C94C4
:10067000190988819981009711F00E94CA0719828F
:1006800018821D821C821B821A82DF91CF910895ED
:100690001F920F920FB60F9211242F933F938F93B7
:1006A0009F93AF93BF938091F9019091FA01A0912C
:1006B000FB01B091FC013091F80123E0230F2D37AD
:1006C00058F50196A11DB11D2093F8018093F90101
:1006D0009093FA01A093FB01B093FC018091FD017E
:1006E0009091FE01A091FF01B09100020196A11D21
:1006F000B11D8093FD019093FE01A093FF01B09383
:100700000002BF91AF919F918F913F912F910F90D8
:100710000FBE0F901F90189526E8230F0296A11D7B
:10072000B11DD2CF1F920F920FB60F9211242F93AB
:100730003F934F935F936F937F938F939F93AF9369
:10074000BF93EF93FF93E0910201F09103010995AC
:10075000FF91EF91BF91AF919F918F917F916F9199
:100760005F914F913F912F910F900FBE0F901F906F
:1007700018951F920F920FB60F9211242F933F934B
:100780004F935F936F937F938F939F93AF93BF9399
:10079000EF93FF93E0910001F09101010995FF9122
:1007A000EF91BF91AF919F918F917F916F915F91E9
:1007B0004F913F912F910F900FBE0F901F90189562
:1007C0001F920F920FB60F9211242F933F934F93C6
:1007D0005F936F937F938F939F93AF93BF93EF93A9
:1007E000FF9381E092E00E941302FF91EF91BF918D
:1007F000AF919F918F917F916F915F914F913F91B9
:100800002F910F900FBE0F901F9018951F920F926F
:100810000FB60F9211242F938F939F93EF93FF9313
:10082000E0911102F09112028081E0911702F091A3
:10083000180282FD1BC0908180911A028F5F8F7316
:1008400020911B02821741F0E0911A02F0E0EF5F65
:10085000FD4F958F80931A02FF91EF919F918F9199
:100860002F910F900FBE0F901F9018958081F4CF9D
:10087000E1E0F2E01382128288EE93E0A0E0B0E0C3
:1008800084839583A683B7838EE091E091838083F0
:1008900085EC90E09587848784EC90E09787868745
:1008A00080EC90E0918B808B81EC90E0938B828B3D
:1008B00082EC90E0958B848B86EC90E0978B868B16
:1008C000118E128E138E148E84EA92E00E9414030D
:1008D0008EE992E00C941403789484B5826084BD10
:1008E00084B5816084BD85B5826085BD85B5816034
:1008F00085BD80916E00816080936E0010928100B2
:10090000809181008260809381008091810081606C
:10091000809381008091800081608093800080912D
:10092000B10084608093B1008091B00081608093B9
:10093000B00080917A00846080937A0080917A0080
:10094000826080937A0080917A00816080937A003F
:1009500080917A00806880937A001092C100E091C3
:100960001102F091120282E08083E0910D02F09179
:100970000E021082E0910F02F09110028FEC808342
:1009800010921902E0911502F091160286E0808320
:10099000E0911302F0911402808180618083E091E4
:1009A0001302F0911402808188608083E091130229
:1009B000F0911402808180688083E0911302F091AD
:1009C000140280818F7D80831092730110927201D6
:1009D00010927101109270011092F2011092F101C7
:1009E00010926F0110926E0110926D0110926C01C5
:1009F000ECE9F0E02491E8E8F0E084918823C1F08C
:100A000090E0880F991FFC01EE58FF4FC591D491DB
:100A1000FC01E859FF4FA591B4919FB7F8948881E4
:100A2000E22FE0958E2388838C91E823EC939FBF7F
:100A300088EF90E09093010180930001809169001C
:100A40008C7F816080936900E89A43E6C42ED12CA4
:100A500059E0E52EF12C60E0262E60E0362E8091E4
:100A6000F4019091F501A091F601B091F701813464
:100A70009D40A340B10508F446C08091F4019091D7
:100A8000F501A091F601B091F701803E9349A44091
:100A9000B105C8F58CE191E00E94A2028FE291E0DD
:100AA0000E94A2020E94D3004B015C0130ED432E54
:100AB00037E0532E612C712C0E94D30068197909FC
:100AC0008A099B09683E734081059105A8F381E07E
:100AD000481A51086108710828EE820E23E0921E20
:100AE000A11CB11C411451046104710429F72114A3
:100AF000310409F4B4CF0E94FF01882309F4AFCF79
:100B00000E940000ACCF8091F301882371F18091A5
:100B1000F4019091F501A091F601B091F7018133B4
:100B20009745A540B105F8F08091F4019091F50149
:100B3000A091F601B091F7018033984CA740B10520
:100B400090F48091F1019091F201FC01EE0FFF1FF2
:100B5000E758FE4F21E030E03183208301969093E7
:100B6000F2018093F1011092F301809178018823C2
:100B700009F4BDCF8091740190917501A091760127
:100B8000B091770181389F44A241B105E8F080918E
:100B9000740190917501A0917601B0917701803B2D
:100BA0009B4DA342B10580F48091F1019091F20137
:100BB000FC01EE0FFF1FE758FE4FF182E082019625
:100BC0009093F2018093F1018091740190917501ED
:100BD000A0917601B0917701813B9B4DA342B10575
:100BE000E8F08091740190917501A0917601B09127
:100BF000770180389342A344B10580F48091F101DC
:100C00009091F201FC01EE0FFF1FE758FE4FF182B9
:100C1000E08201969093F2018093F101809174013A
:100C200090917501A0917601B09177018133904642
:100C3000A244B10508F49FC06091F1017091F201E6
:100C4000FB01EE0FFF1FE758FE4FD182C082709369
:100C500073016093720120916C0130916D01A9E7DD
:100C6000B1E050E040E090E080E0641775070CF4DC
:100C70005DC0ED91FD91E130F10529F42F5F3F4F0B
:100C80004F5F5F4FF2CFE930F10559F4FC01EE0FF1
:100C9000FF1FEC5BFE4F31832083019630E020E0A4
:100CA000EFCFE336F10561F7909371018093700106
:100CB00050936F0140936E0130936D0120936C014E
:100CC000FC01EE0FFF1FEC5BFE4F3183208380FFA2
:100CD00046C0C4E4D1E010E000E080917001909142
:100CE000710180179107BCF18091440190914501F9
:100CF000892B89F168817981072E000C880B990B6B
:100D000097FF21C00E94F3026A817B81072E000CAD
:100D1000880B990B97FF1BC00E94F30282E391E0BE
:100D20000E94A2020E5F1F4F2496D7CF90937101AD
:100D30008093700150936F0140936E0130936D0169
:100D400020936C01C4CF4AE00E94AF02DDCF4AE09D
:100D50000E94AF02E3CF8FE291E00E94A2021092C4
:100D60006D0110926C011092F2011092F10110923B
:100D700073011092720110927801B9CE80919E0297
:100D800090919F02009711F00E94CA078091A402DF
:100D90009091A502009711F00C94CA0708952F9224
:100DA0003F924F925F926F927F928F929F92AF92FB
:100DB000BF92CF92DF92EF92FF920F931F93CF9348
:100DC000DF93CDB7DEB7CA1BDB0B0FB6F894DEBFDF
:100DD0000FBECDBF09942A88398848885F846E8405
:100DE0007D848C849B84AA84B984C884DF80EE804F
:100DF000FD800C811B81AA81B981CE0FD11D0FB658
:100E0000F894DEBF0FBECDBFED010895A1E21A2E0A
:100E1000AA1BBB1BFD010DC0AA1FBB1FEE1FFF1F9E
:100E2000A217B307E407F50720F0A21BB30BE40BEE
:100E3000F50B661F771F881F991F1A9469F7609535
:100E40007095809590959B01AC01BD01CF010895EF
:100E5000EE0FFF1F0590F491E02D09940F931F935F
:100E6000CF93DF938230910510F482E090E0E0911F
:100E7000AC02F091AD0230E020E0B0E0A0E03097AD
:100E800099F42115310509F44AC0281B390B243087
:100E90003105D8F58A819B816115710589F1FB01C6
:100EA00093838283FE0111C04081518102811381AD
:100EB00048175907E0F04817590799F4109761F05F
:100EC00012960C93129713961C933296CF01DF91D2
:100ED000CF911F910F9108950093AC021093AD0232
:100EE000F4CF2115310551F04217530738F0A9010D
:100EF000DB019A01BD01DF01F801C1CFEF01F9CF9C
:100F00009093AD028093AC02CDCFFE01E20FF31FB0
:100F1000819391932250310939832883D7CF20912F
:100F2000AA023091AB02232B41F4209106013091AB
:100F300007013093AB022093AA0220910401309163
:100F400005012115310541F42DB73EB74091080147
:100F500050910901241B350BE091AA02F091AB02DC
:100F6000E217F307A0F42E1B3F0B2817390778F080
:100F7000AC014E5F5F4F2417350748F04E0F5F1FDF
:100F80005093AB024093AA02819391939FCFF0E0DC
:100F9000E0E09CCFCF93DF930097E9F0FC0132971C
:100FA00013821282A091AC02B091AD02ED0130E04B
:100FB00020E01097A1F420813181820F931F2091AE
:100FC000AA023091AB022817390709F061C0F093EB
:100FD000AB02E093AA02DF91CF910895EA01CE1708
:100FE000DF07E8F54A815B819E0141155105B1F7A4
:100FF000E901FB83EA8349915991C40FD51FEC178E
:10100000FD0761F4808191810296840F951FE901AB
:1010100099838883828193819B838A83F0E0E0E0D7
:1010200012968D919C9113970097B9F52D913C9153
:101030001197CD010296820F931F2091AA02309141
:10104000AB022817390739F6309751F51092AD02E7
:101050001092AC02B093AB02A093AA02BCCFD38390
:10106000C28340815181840F951FC817D90761F44D
:101070004E5F5F4F88819981480F591F518340838C
:101080008A819B81938382832115310509F0B0CF3A
:10109000F093AD02E093AC029ECFFD01DC01C0CF26
:1010A00013821282D7CFB0E0A0E0E9E5F8E00C941B
:1010B000D1068C01009751F4CB010E942E078C01C0
:1010C000C801CDB7DEB7E0E10C94ED06FC01E60FF8
:1010D000F71F9C0122503109E217F30708F49DC065
:1010E000D901CD91DC911197C617D70798F0C5307B
:1010F000D10530F3CE0104978617970708F3C61B76
:10110000D70B2297C193D1936D937C93CF010E940B
:10111000CA07D6CF5B01AC1ABD0A4C018C0E9D1ECE
:10112000A091AC02B091AD02512C412CF12CE12CDC
:10113000109731F58091AA029091AB02881599051C
:1011400009F05CC04616570608F058C080910401AB
:1011500090910501009741F48DB79EB74091080129
:1011600050910901841B950BE817F90708F055C049
:10117000F093AB02E093AA02F90171836083A0CFE0
:101180008D919C91119712966C90129713967C906A
:101190001397A815B90559F56C0142E0C40ED11C8E
:1011A000CA14DB0420F1AC014A195B09DA0112967A
:1011B000159780F06282738251834083D9016D93C9
:1011C0007C93E114F10471F0D7011396FC93EE9334
:1011D000129776CF22968C0F9D1FF9019183808301
:1011E000F301EFCFF093AD02E093AC0269CF481664
:1011F000590608F42C017D01D3019ACFCB010E943E
:101200002E077C01009749F0AE01B8010E94100939
:10121000C8010E94CA07870153CF10E000E050CFF9
:10122000FB01DC0102C001900D9241505040D8F703
:101230000895FB01DC0101900D920020E1F7089573
:1012400010E0C2E6D0E004C0FE010E94280721960B
:0A125000C336D107C9F7F894FFCFA9
:10125A00940194010000AE028000000000003502F3
:10126A009501C2018202F301D101E5014F4B2E2003
:10127A004E6F204572726F7220636F646573000D42
:04128A000A00200036
:00000001FF
