:100000000C94FD000C9425010C9425010C94250101
:100010000C9425010C9425010C9425010C942501C8
:100020000C9425010C9425010C9425010C942501B8
:100030000C9425010C9425010C9425010C942501A8
:100040000C9448030C9425010C94B8030C9492036F
:100050000C9425010C9425010C9425010C94250188
:100060000C9425010C94250108000000BE9224493F
:10007000123EABAAAA2ABECDCCCC4C3E00000080DA
:10008000BEABAAAAAA3E00000000BF000000803F4D
:100090000000000000084178D3BB4387D1133D190D
:1000A0000E3CC3BD4282AD2B3E68EC8276BED98F3A
:1000B000E1A93E4C80EFFFBE01C4FF7F3F0000007E
:1000C000000000407A10F35A00A0724E1809001088
:1000D000A5D4E80000E87648170000E40B540200BD
:1000E00000CA9A3B000000E1F505000080969800E8
:1000F000000040420F000000A08601000000102711
:1001000000000000E80300000000640000000000A0
:100110000A00000000000100000000002C76D888D2
:10012000DC674F0823DFC1DFAE59E1B1B796E5E3E5
:10013000E453C63AE651997696E8E6C28426EB89FE
:100140008C9B62ED407C6FFCEFBC9C9F40F2BAA59B
:100150006FA5F490055A2AF75C936B6CF9676DC133
:100160001BFCE0E40D47FEF520E6B500D0ED902E37
:100170000300943577050080841E080000204E0A95
:10018000000000C80C333333330F986E12831141D3
:10019000EF8D2114893BE65516CFFEE6DB18D1849E
:1001A0004B381BF77C1D901DA4BBE42420328472C5
:1001B0005E228100C9F124ECA1E53D27000000008A
:1001C000250028002B0000000000240027002A0042
:1001D00004040404040404040202020202020303ED
:1001E00003030303010204081020408001020408F5
:1001F0001020010204081020B50511241FBECFEF06
:10020000D8E0DEBFCDBF11E0A0E0B1E0E4E4FAE168
:1002100002C005900D92AA33B107D9F721E0AAE3F5
:10022000B1E001C01D92A83EB207E1F710E0CDEFAA
:10023000D0E004C02197FE010E94280BCC3FD107DB
:10024000C9F70E94EA030C94200D0C940000CF9390
:10025000DF9390E0FC01EC51FE4F249180539E4FC0
:10026000FC0184918823C1F090E0880F991FFC0164
:10027000EA53FE4FC591D491FC01E454FE4FA59181
:10028000B4919FB7F8948881E22FE0958E238883FC
:100290008C91E823EC939FBFDF91CF9108958E500E
:1002A000806480937C0080917A00806480937A00DF
:1002B00080917A0086FDFCCF809178009091790042
:1002C0000895AF92BF92CF92DF92EF92FF920F9379
:1002D0001F93CF93DF936C017B018B01040F151FDC
:1002E000EB015E01AE18BF08C017D10759F0699144
:1002F000D601ED91FC910190F081E02DC6010995A8
:10030000892B79F7C501DF91CF911F910F91FF9054
:10031000EF90DF90CF90BF90AF900895FC01538D88
:10032000448D252F30E0842F90E0821B930B5417CF
:1003300010F0CF96089501970895FC01918D828D5C
:10034000981761F0A28DAE0FBF2FB11D5D968C91F5
:10035000928D9F5F9F73928F90E008958FEF9FEF34
:100360000895FC01918D828D981731F0828DE80FF0
:10037000F11D858D90E008958FEF9FEF0895FC01AA
:10038000918D228D892F90E0805C9F4F821B910977
:100390008F739927089587E491E00E94BF0121E0BF
:1003A000892B09F420E0822F089580E090E0892BCA
:1003B00029F00E94CB0181110C9400000895FC01EA
:1003C000A48DA80FB92FB11DA35ABF4F2C91848DB6
:1003D00090E001968F739927848FA689B7892C9313
:1003E000A089B1898C91837080648C93938D848D66
:1003F000981306C00288F389E02D80818F7D808369
:100400000895EF92FF920F931F93CF93DF93EC0128
:1004100081E0888F9B8D8C8D98131AC0E889F989AB
:10042000808185FF15C09FB7F894EE89FF896083AE
:10043000E889F98980818370806480839FBF81E02F
:1004400090E0DF91CF911F910F91FF90EF90089571
:10045000F62E0B8D10E00F5F1F4F0F731127E02E4C
:100460008C8D8E110CC00FB607FCFACFE889F98984
:10047000808185FFF5CFCE010E94DF01F1CFEB8DAA
:10048000EC0FFD2FF11DE35AFF4FF0829FB7F89458
:100490000B8FEA89FB8980818062CFCFCF93DF9376
:1004A000EC01888D8823B9F0AA89BB89E889F9898C
:1004B0008C9185FD03C0808186FD0DC00FB607FCC1
:1004C000F7CF8C9185FFF2CF808185FFEDCFCE01F4
:1004D0000E94DF01E9CFDF91CF910895FC010190E7
:1004E0000020E9F73197AF01481B590BBC0187E4A5
:1004F00091E00C946101CF93DF93EC0188819981A5
:10050000009711F00E94CA0B198218821D821C826A
:100510001B821A82DF91CF910895FC018081918125
:10052000009711F00C94CA0B08950F931F93CF936B
:10053000DF93EC0188819981009759F02A813B81F2
:100540002617370730F081E0DF91CF911F910F918F
:1005500008958B016F5F7F4F0E94530C009759F0F5
:10056000998388831B830A832C813D81232B59F730
:10057000FC011082E8CF80E0E7CFEF92FF920F936B
:100580001F93CF93DF936115710541F480E0DF91F4
:10059000CF911F910F91FF90EF9008954115510554
:1005A000B1F07B01EC010C811D81040F151FB80116
:1005B0000E949502882351F3288139818C819D8185
:1005C000B701820F931F0E94190D1D830C8381E0D8
:1005D000DECFEF92FF920F931F93CF93DF93EC0147
:1005E0007B018A01BA010E94950281110BC0CE01E4
:1005F0000E947B02CE01DF91CF911F910F91FF905E
:10060000EF9008951D830C83B701888199810E9422
:10061000190DF0CFEF92FF920F931F93CF93DF93BB
:10062000CDB7DEB7E3970FB6F894DEBF0FBECDBFF0
:100630007C01CB01BA01F701118210821382128270
:100640001582148242E0420F8E010F5F1F4F0E94FD
:10065000E2050097C9F0FC0101900020E9F731970D
:10066000AF01481B590BBC01C7010E94E902E39688
:100670000FB6F894DEBF0FBECDBFDF91CF911F91B3
:100680000F91FF90EF900895C7010E947B02EFCF7A
:100690001F920F920FB60F9211242F933F938F93B7
:1006A0009F93AF93BF938091430190914401A09198
:1006B0004501B09146013091420123E0230F2D37CF
:1006C00058F50196A11DB11D20934201809343016D
:1006D00090934401A0934501B093460180913E015F
:1006E00090913F01A0914001B09141010196A11D5F
:1006F000B11D80933E0190933F01A0934001B093C0
:100700004101BF91AF919F918F913F912F910F9098
:100710000FBE0F901F90189526E8230F0296A11D7B
:10072000B11DD2CF1F920F920FB60F9211242F93AB
:100730003F934F935F936F937F938F939F93AF9369
:10074000BF93EF93FF9387E491E00E94DF01FF9155
:10075000EF91BF91AF919F918F917F916F915F9139
:100760004F913F912F910F900FBE0F901F901895B2
:100770001F920F920FB60F9211242F938F939F9376
:10078000EF93FF93E0915701F09158018081E09140
:100790005D01F0915E0182FD1BC09081809160013E
:1007A0008F5F8F7320916101821741F0E0916001AA
:1007B000F0E0E95BFE4F958F80936001FF91EF9130
:1007C0009F918F912F910F900FBE0F901F901895B2
:1007D0008081F4CFCF93DF93CDB7DEB72C970FB6E0
:1007E000F894DEBF0FBECDBF789484B5826084BD1F
:1007F00084B5816084BD85B5826085BD85B5816025
:1008000085BD80916E00816080936E0010928100A2
:10081000809181008260809381008091810081605D
:10082000809381008091800081608093800080911E
:10083000B10084608093B1008091B00081608093AA
:10084000B00080917A00846080937A0080917A0071
:10085000826080937A0080917A00816080937A0030
:1008600080917A00806880937A001092C100E091B4
:100870005701F091580182E08083E0915301F0919B
:1008800054011082E0915501F09156018FEC808364
:1008900010925F01E0915B01F0915C0186E0808342
:1008A000E0915901F0915A01808180618083E0914B
:1008B0005901F0915A01808188608083E09159014B
:1008C000F0915A01808180688083E0915901F09114
:1008D0005A0180818F7D80838EE00E9427018FE006
:1008E0000E94270188E3C82E83E0D82EE12CF12C4A
:1008F00000E010E02FB7F8948091430190914401FB
:10090000A0914501B09146012FBF40913A0150910D
:100910003B0160913C0170913D01841B950BA60B3E
:10092000B70B8D3D9540A105B10508F459C02FB70F
:10093000F8948091430190914401A0914501B091B8
:1009400046012FBF80933A0190933B01A0933C0155
:10095000B0933D018FE00E944F01BC01990F880BBD
:10096000990B0E9439089B01AC0160E070EC8FE7A5
:1009700094E40E94310A20E030E040E85FE30E9406
:10098000C4099B01AC0160E078E588E197E40E942E
:10099000310A20E038EF47E257E40E94310A0E9412
:1009A000AB0A2B013C018EE00E944F015C018FE0FD
:1009B0000E944F0185389340FCF088E191E00E944D
:1009C0006E028EE00E944F018F3E92400CF472C086
:1009D0008BE291E00E946E0286E391E00E946E023B
:1009E0000115110509F486CF0E94CB01882309F473
:1009F00081CF0E9400007ECF20E030EE46E755E434
:100A0000C301B2010E94310A2FE03FEC4BE55BE3EA
:100A10000E94C5099B01AC0160E070E080E89FE3A3
:100A20000E94310A23E333E948E853E40E94C409F1
:100A3000AB01BC0120E0CE0107960E940A031A8296
:100A400019821C821B821E821D8245E050E065E2F5
:100A500071E0CE0101960E94E9024B855C856F81B1
:100A60007885CE0101960E94BD02811104C0CE019D
:100A700001960E947B0241E050E063E271E0CE010A
:100A800001960E94BD02811104C0CE0101960E9410
:100A90007B024D815E8169817A8187E491E00E94C9
:100AA0006101CE0101960E948D02CE0107960E943F
:100AB0008D0287CF9501BB0C440B550B2056310995
:100AC00041095109A6E9B0E00E945109A701960128
:100AD0000E943209CA01B9010E9439082DEC3CEC90
:100AE0004CED50E40E94740820E030E048EC52E401
:100AF0000E94310AAB01BC0122E0CE0101960E94A6
:100B00000A0318861F821A8619861C861B8669812D
:100B10007A816115710531F04D815E81CE010796B4
:100B20000E94E90244E050E061E371E0CE010796E3
:100B30000E94BD02811104C0CE0107960E947B0273
:100B40004B855C856F81788587E491E00E94610127
:100B500086E391E00E946E02CE0107960E948D020C
:100B6000CE0101960E948D023BCFE7E4F1E01382B3
:100B7000128288EE93E0A0E0B0E084839583A683A0
:100B8000B7838AE091E09183808385EC90E095873C
:100B9000848784EC90E09787868780EC90E0918B47
:100BA000808B81EC90E0938B828B82EC90E0958B34
:100BB000848B86EC90E0978B868B118E128E138E31
:100BC000148E0895EF920F931F93CF93DF93E80154
:100BD00034E047FD34E1042E000C550B57FF03C0F1
:100BE000519541955109E32E022F242FAE010E9409
:100BF0000006CE01DF91CF911F910F91EF900895E4
:100C0000A9E0B0E0E6E0F6E00C9462096A01F22E99
:100C1000B02E102FFBE3AF2EA01608F41BE31F5FCE
:100C2000012F27E0AE014F5F5F4F0E945F07BC01BD
:100C30008981982F9970913009F43FC09BE2E1FCC3
:100C400004C09E2D9170E0FC3AC05E2D5071E82FDB
:100C5000E87083FF46C084E0911101C083E0EF2D6E
:100C6000E81B8F1508F0E0E0D6018E2F20E2552317
:100C700051F1992329F0D6019C93C60101966C018C
:100C800096012D5F3F4FE2FE24C08EE4D6018C9387
:100C900091E411969C93119712968C93D9018E2F03
:100CA00090E281111BC0E20FF32FF11D10828EEF35
:100CB0009FEF2996ECE00C947E099DE2C6CF90E26E
:100CC000C4CF2D9381508111FCCFCE0ED11CE0E01A
:100CD000D0CF8EE6D6018C9391E6DBCF9D938150E9
:100CE000E0CF482F447082FF3DC084E0911101C0E5
:100CF00083E08F1510F4EF2DE81BD6018E2F20E234
:100D0000552309F1992329F0D6019C93C601019638
:100D10006C0196012D5F3F4FE2FE1BC089E4D601B6
:100D20008C938EE411968C93119786E412968C9393
:100D3000D9018E2F90E2882309F4B5CF9D9381507D
:100D4000FACF2D9381508111FCCFCE0ED11CE0E063
:100D5000D9CF89E6D6018C938EE611968C931197A4
:100D600086E6E4CF9B0177FF02C030E020E0A1E0FF
:100D7000B0E0911102C0B0E0A0E0F9013196AE0FF1
:100D8000BF1F8B2C912CBB2009F461C05401EFEFE5
:100D9000AE1ABE0AAA0DBB1DFA161B0619F014F0F6
:100DA0004F2D4A1B511188C0E3FC59C07601A42F76
:100DB000B0E2A1114FC0C40ED11C992309F45BC04D
:100DC00040E0D6011196F60190836D01552309F498
:100DD00048C0012F060F9A81582F507184FF03C01D
:100DE000913309F4015010160CF047C0093008F097
:100DF00008E0EEE2FE2E5B01A01AB1088501919495
:100E0000819491082F3F320729F4D601FC92F60114
:100E100031966F016217730794F1021713077CF57F
:100E2000DB01A21BB30BAA24A394B12CAC0EBD1EF4
:100E3000AA0DBB1D11968C9121503109D601119636
:100E400028153905F4F0F60180836D01DBCFB12C54
:100E5000A12CA0CFF701B1937F01A150AACF91118E
:100E6000B0CFD601942F50E302C05D939150911101
:100E7000FCCFC40ED11C40E0ACCF01E0BACF80E380
:100E8000DBCF6217730731F4963388F4953311F48E
:100E9000552369F0F6018083FD01842F90E28111D2
:100EA00008C0A40FB11D1C9290E080E002CF81E346
:100EB000F1CF91938150F3CF911183CF8ACF283016
:100EC00008F027E03327DA01990F311D87FD916083
:100ED00000966105710539F432602E5F3D9330E371
:100EE0002A95E1F708959F3F30F08038710561053C
:100EF00009F03C5F3C5F3D93913008F08068911DA4
:100F0000DF93CF931F930F93FF92EF92192F987F48
:100F10009695E92F96959695E90FFF27E45EFE4F8B
:100F200099273327EE24FF24A701E70105900894B1
:100F3000079428F4360FE71EF81E491F511D660F4F
:100F4000771F881F991F0694A1F70590079428F42E
:100F5000E70EF81E491F561FC11D770F881F991FE6
:100F6000661F0694A1F70590079428F4F80E491F10
:100F7000561FC71FD11D880F991F661F771F069424
:100F8000A1F70590079420F4490F561FC71FD81FDB
:100F9000990F661F771F881F0694A9F784911095F3
:100FA000177041F0D695C79557954795F794E794F4
:100FB0001A95C1F7E2ECF0E068941590159135911F
:100FC0006591959105907FE27395E118F10A430BC5
:100FD000560BC90BD009C0F7E10CF11E431F561F79
:100FE000C91FD01D7EF4703311F48A95E6CFE894C2
:100FF000015030F0080F0AF40027021708F4202FE0
:101000002395022F7A3328F079E37D932A95E9F727
:1010100010C07D932A9589F6069497956795379524
:1010200017951794E118F10A430B560BC90BD00919
:1010300098F023957E9173957A3308F070E37C9352
:101040002013B8F77E9170617D9330F0839571E342
:101050007D9370E32A95E1F71124EF90FF900F91B3
:101060001F91CF91DF91992787FD90950895E8947E
:1010700009C097FB3EF490958095709561957F4FE0
:101080008F4F9F4F9923A9F0F92F96E9BB2793958E
:10109000F695879577956795B795F111F8CFFAF49E
:1010A000BB0F11F460FF1BC06F5F7F4F8F4F9F4FCF
:1010B00016C0882311F096E911C0772321F09EE82D
:1010C000872F762F05C0662371F096E8862F70E093
:1010D00060E02AF09A95660F771F881FDAF7880F6D
:1010E0009695879597F908950E9487080C94F808BB
:1010F0000E94EA0838F00E94F10820F0952311F0D0
:101100000C94E1080C94E70811240C942C090E941B
:10111000090970F3959FC1F3950F50E0551F629F29
:10112000F001729FBB27F00DB11D639FAA27F00D40
:10113000B11DAA1F649F6627B00DA11D661F829F67
:101140002227B00DA11D621F739FB00DA11D621F4C
:10115000839FA00D611D221F749F3327A00D611D69
:10116000231F849F600D211D822F762F6A2F11244B
:101170009F5750409AF0F1F088234AF0EE0FFF1F7E
:10118000BB1F661F771F881F91505040A9F79E3FD5
:10119000510580F00C94E1080C942C095F3FE4F3B6
:1011A000983ED4F3869577956795B795F795E7952B
:1011B0009F5FC1F7FE2B880F911D9695879597F934
:1011C000089597F99F6780E870E060E008959FEFC9
:1011D00080EC089500240A941616170618060906CE
:1011E000089500240A94121613061406050608959D
:1011F000092E0394000C11F4882352F0BB0F40F425
:10120000BF2B11F460FF04C06F5F7F4F8F4F9F4F64
:10121000089557FD9058440F551F59F05F3F71F0E6
:101220004795880F97FB991F61F09F3F79F087954D
:101230000895121613061406551FF2CF4695F1DFD6
:1012400008C0161617061806991FF1CF8695710566
:10125000610508940895E894BB2766277727CB019A
:1012600097F90895052E97FB1EF400940E944909F2
:1012700057FD07D00E94930907FC03D04EF40C944D
:10128000490950954095309521953F4F4F4F5F4FFD
:10129000089590958095709561957F4F8F4F9F4FE2
:1012A00008950E94B509A59F900DB49F900DA49F2D
:1012B000800D911D112408952F923F924F925F92BD
:1012C0006F927F928F929F92AF92BF92CF92DF9256
:1012D000EF92FF920F931F93CF93DF93CDB7DEB7BB
:1012E000CA1BDB0B0FB6F894DEBF0FBECDBF09944F
:1012F0002A88398848885F846E847D848C849B84A6
:10130000AA84B984C884DF80EE80FD800C811B81B3
:10131000AA81B981CE0FD11D0FB6F894DEBF0FBEE2
:10132000CDBFED010895A1E21A2EAA1BBB1BFD0142
:101330000DC0AA1FBB1FEE1FFF1FA217B307E407B4
:10134000F50720F0A21BB30BE40BF50B661F771F0C
:10135000881F991F1A9469F76095709580959095EC
:101360009B01AC01BD01CF010895A29FB001B39FC5
:10137000C001A39F700D811D1124911DB29F700D9E
:10138000811D1124911D08955058BB27AA270E9442
:10139000DC090C94F8080E94EA0838F00E94F10871
:1013A00020F039F49F3F19F426F40C94E7080EF46A
:1013B000E095E7FB0C94E108E92F0E94090958F336
:1013C000BA17620773078407950720F079F4A6F52A
:1013D0000C942B090EF4E0950B2EBA2FA02D0B01C7
:1013E000B90190010C01CA01A0011124FF27591B6A
:1013F00099F0593F50F4503E68F11A16F040A22F70
:10140000232F342F4427585FF3CF469537952795E0
:10141000A795F0405395C9F77EF41F16BA0B620BDF
:10142000730B840BBAF09150A1F0FF0FBB1F661F26
:10143000771F881FC2F70EC0BA0F621F731F841F69
:1014400048F4879577956795B795F7959E3F08F08F
:10145000B0CF9395880F08F09927EE0F9795879551
:1014600008950E94450A0C94F8080E94F10858F06B
:101470000E94EA0840F029F45F3F29F00C94E1084B
:1014800051110C942C090C94E7080E94090968F387
:101490009923B1F3552391F3951B550BBB27AA272D
:1014A00062177307840738F09F5F5F4F220F331F67
:1014B000441FAA1FA9F335D00E2E3AF0E0E832D02F
:1014C00091505040E695001CCAF72BD0FE2F29D032
:1014D000660F771F881FBB1F261737074807AB0704
:1014E000B0E809F0BB0B802DBF01FF2793585F4F79
:1014F0003AF09E3F510578F00C94E1080C942C09C9
:101500005F3FE4F3983ED4F3869577956795B7955A
:10151000F7959F5FC9F7880F911D9695879597F965
:101520000895E1E0660F771F881FBB1F62177307DE
:101530008407BA0720F0621B730B840BBA0BEE1FF3
:1015400088F7E095089516F00C94F30A0C94E708D8
:1015500068940C94E1080E941109A8F39923C1F33F
:10156000AEF3DF93CF931F930F93FF92C92FDD2725
:1015700088232AF02197660F771F881FDAF720E06B
:1015800030E040E85FEB9FE3883920F0803E38F0A0
:1015900021968F770E94C509E8E6F0E004C00E941A
:1015A000C509E5E9F0E00E94010B8B01BE01EC01E9
:1015B000FB2E6F5771097595771F880B990B0E9449
:1015C000390828E132E741E35FE30E948708AF2D45
:1015D0009801AE01FF900F911F91CF91DF910E9472
:1015E000DC090C94F8089F3F31F0915020F4879566
:1015F00077956795B795880F911D9695879597F97B
:101600000895DF93CF931F930F93FF92EF92DF9292
:101610007B018C01689406C0DA2EEF010E948708D6
:10162000FE01E894A5912591359145915591A6F338
:10163000EF010E94DC09FE019701A801DA9469F725
:10164000DF90EF90FF900F911F91CF91DF91089560
:10165000EE0FFF1F0590F491E02D09940F931F9357
:10166000CF93DF938230910510F482E090E0E09117
:10167000E601F091E70130E020E0B0E0A0E0309733
:1016800099F42115310509F44AC0281B390B24307F
:101690003105D8F58A819B816115710589F1FB01BE
:1016A00093838283FE0111C04081518102811381A5
:1016B00048175907E0F04817590799F4109761F057
:1016C00012960C93129713961C933296CF01DF91CA
:1016D000CF911F910F9108950093E6011093E701B8
:1016E000F4CF2115310551F04217530738F0A90105
:1016F000DB019A01BD01DF01F801C1CFEF01F9CF94
:101700009093E7018093E601CDCFFE01E20FF31F36
:10171000819391932250310939832883D7CF209127
:10172000E4013091E501232B41F420910201309135
:1017300003013093E5012093E401209100013091F1
:1017400001012115310541F42DB73EB74091040147
:1017500050910501241B350BE091E401F091E50166
:10176000E217F307A0F42E1B3F0B2817390778F078
:10177000AC014E5F5F4F2417350748F04E0F5F1FD7
:101780005093E5014093E401819391939FCFF0E062
:10179000E0E09CCFCF93DF930097E9F0FC01329714
:1017A00013821282A091E601B091E701ED0130E0D1
:1017B00020E01097A1F420813181820F931F2091A6
:1017C000E4013091E5012817390709F061C0F09371
:1017D000E501E093E401DF91CF910895EA01CE178E
:1017E000DF07E8F54A815B819E0141155105B1F79C
:1017F000E901FB83EA8349915991C40FD51FEC1786
:10180000FD0761F4808191810296840F951FE901A3
:1018100099838883828193819B838A83F0E0E0E0CF
:1018200012968D919C9113970097B9F52D913C914B
:101830001197CD010296820F931F2091E401309100
:10184000E5012817390739F6309751F51092E7016D
:101850001092E601B093E501A093E401BCCFD383DD
:10186000C28340815181840F951FC817D90761F445
:101870004E5F5F4F88819981480F591F5183408384
:101880008A819B81938382832115310509F0B0CF32
:10189000F093E701E093E6019ECFFD01DC01C0CFAC
:1018A00013821282D7CFB0E0A0E0E9E5FCE00C940F
:1018B0005E098C01009751F4CB010E942E0B8C0124
:1018C000C801CDB7DEB7E0E10C947A09FC01E60F60
:1018D000F71F9C0122503109E217F30708F49DC05D
:1018E000D901CD91DC911197C617D70798F0C53073
:1018F000D10530F3CE0104978617970708F3C61B6E
:10190000D70B2297C193D1936D937C93CF010E9403
:10191000CA0BD6CF5B01AC1ABD0A4C018C0E9D1EC2
:10192000A091E601B091E701512C412CF12CE12C62
:10193000109731F58091E4019091E50188159905A2
:1019400009F05CC04616570608F058C080910001A7
:1019500090910101009741F48DB79EB74091040129
:1019600050910501841B950BE817F90708F055C045
:10197000F093E501E093E401F90171836083A0CF66
:101980008D919C91119712966C90129713967C9062
:101990001397A815B90559F56C0142E0C40ED11C86
:1019A000CA14DB0420F1AC014A195B09DA01129672
:1019B000159780F06282738251834083D9016D93C1
:1019C0007C93E114F10471F0D7011396FC93EE932C
:1019D000129776CF22968C0F9D1FF90191838083F9
:1019E000F301EFCFF093E701E093E60169CF4816EA
:1019F000590608F42C017D01D3019ACFCB010E9436
:101A00002E0B7C01009749F0AE01B8010E94100D29
:101A1000C8010E94CA0B870153CF10E000E050CFED
:101A2000FB01DC0102C001900D9241505040D8F7FB
:101A30000895FB01DC0101900D920020E1F708956B
:041A4000F894FFCF48
:101A44000000E801800000000000010261018E0135
:101A54004E02BF019D01B101626567696E74616CDC
:101A640061726D6B00626567696E0070616C6172B2
:0A1A74006D63656E64000D0A00004A
:00000001FF
